:020000040800F2
:10000000F04300204901000835240008F1160008DB
:1000100031240008E10C000897500008000000009F
:10002000000000000000000000000000CF480008B1
:10003000C910000800000000BD240008E74B0008BC
:100040006301000863010008630100086301000800
:1000500063010008630100086301000863010008F0
:1000600063010008630100086301000863010008E0
:1000700063010008630100086301000863010008D0
:1000800063010008630100086301000863010008C0
:1000900063010008630100086301000863010008B0
:1000A00063010008630100086301000863010008A0
:1000B0006301000863010008630100086301000890
:1000C0006301000863010008630100086301000880
:1000D00063010008754E0008630100086301000811
:1000E000CD100008630100086301000863010008E7
:1000F0006301000863010008630100086301000850
:100100006301000835280008630100086301000846
:10011000114E00086301000863010008114D00083A
:10012000630100086301000863010008630100081F
:10013000DFF810D000F090FC00480047C99E00088E
:10014000AFF30080F0430020064880470648004790
:10015000FEE7FEE7FEE7FEE7FEE7FEE7FEE7FEE777
:10016000FEE7FEE7E94B0008310100082DE9F04108
:100170000024061B254671F1000605DA012400273C
:10018000D0EB070067EB0101161E73F1000605DADC
:100190000027D2EB0702012567EB030300F036FBD3
:1001A00086460E4617469C46AC4204D00025D0EB4E
:1001B000050E65EB010624B10020D2EB000760EBD1
:1001C000030C704631463A466346BDE8F08140EA8A
:1001D00001039B0703D009E008C9121F08C0042AC5
:1001E000FAD203E011F8013B00F8013B521EF9D2AC
:1001F0007047421E12F8013F002BFBD111F8013B62
:1002000002F8013B002BF9D1704710B5002200E045
:10021000521C835C8C5CA34201D1002BF8D1D8B274
:10022000E1B2401A10BD034611F8012B00F8012B72
:10023000002AF9D118467047F0B480EA0102D40FC1
:100240004200B2EB410F02D20246084611464A0074
:1002500042D0C30DDDB2C1F3C752AD1A202D35DA3D
:10026000C1F3160141F4000204B15242C5F1200667
:1002700002FA06F12A411044B3EBD05F23D0C4B197
:10028000012DA0EBC35009DCF0BC4FF0004202EAA4
:10029000C352DBB200F5000000F023BB400000F1C8
:1002A000807000EBC350A0F1807040EAD17049002B
:1002B00009E0490841EAC071A0EBC35000F5000015
:1002C000400800EBC350F0BC00F002BB61420122C9
:1002D00002EB4101001BF6E7F0BC704781F00041E2
:1002E000AAE780F00040A7E780EA010210B502F01B
:1002F0000043400022D04A001FD0010E01EB1261E2
:10030000C0F35600C2F3560240F4000042F400026B
:10031000A0FB022000047F39140400D0401C50EAE6
:10032000124001D44000491EC2B20C0604EBD010AA
:10033000401C4008802A02D003E0002010BD20F0BD
:100340000100002900DA0020184310BD30B480EA13
:10035000010202F0004530F0004221F0004013D0CD
:1003600090B1C30DD40DC2F31601C0F31600E41A08
:1003700041F4000140F400027D34914201D3641C39
:1003800000E04900002C02DA30BC002070474FF436
:1003900000000023914201D3891A034340084FEA29
:1003A0004101F7D151B1914202D14FF0004105E036
:1003B00002D24FF0010101E06FF0010103EBC450E4
:1003C000284430BC00F084BA2DE9FE4F804681EA13
:1003D0000300C00F0C46009021F0004123F00045BF
:1003E000B8EB0200A94105D24046214690461C4682
:1003F0000B46024623F00040104347D0270DC7F3B9
:100400000A00C3F30A510290401A019040286BDAA7
:10041000C3F3130040F4801B0098924620B10023E0
:10042000D2EB030A63EB0B0B01985946C0F1400273
:10043000504600F01CFA06460D4650465946019AB1
:1004400000F034FA10EB08006141002487EA1152F1
:1004500084EAE7731A4340D0009A62B3019A012AF2
:100460004FEA075215DC001B61EB02014FF000421E
:1004700002EA0752CDE90042001C41F580113246E4
:100480002B4600F06BFA03B0BDE8F08F40462146E2
:10049000F9E7001B61EB0201001C41F58013001815
:1004A0005B412018A2F5001747EB030140EAD57025
:1004B000B6196D4111E06D084FEA360645EAC07580
:1004C0004FEA0752001B61EB0201001C41F580114D
:1004D00049084FEA30000019514132462B4603B01B
:1004E000BDE8F04F00F02BBA009801224000002335
:1004F000D0EB020263EBE073009821464FEAE07410
:10050000B8EB000061EB0401E9E783F000435BE72F
:1005100081F0004158E72DE9FE4F81EA030404F021
:10052000004421F0004100944FF0000B23F0004301
:1005300050EA01045ED052EA03045BD0C3F30A54CC
:10054000C1F30A552C44A4F2F3340194A0FB0254E5
:10055000C1F3130141F48011C3F3130343F4801377
:1005600001FB024400FB034E840A970A44EA8154CB
:1005700047EA8357A4FB076802958D0A05FB0785A8
:100580004FEA932C04FB0C542705029D4FEA0658B2
:1005900047EA1637B5EB08056EEB070C870E920E8F
:1005A00047EA811742EA8312A7FB0201B6EB0B016F
:1005B00064EB00042B0D43EA0C335E1844EB1C5033
:1005C000DA465146E7FB0201C5F313044FEA0B3349
:1005D00043EA14534FEA0432019C43EA0603A4F1B0
:1005E0000C040294009CCDE900B400F0B7F903B00C
:1005F000BDE8F08F00200146F9E72DE9F04D81EAD2
:10060000030404F0004B21F0004514464FF0000AAB
:1006100023F0004150EA050220D054EA01021DD027
:10062000C5F30A570246C5F31303C1F31300C1F320
:100630000A5640F4801543F48013A7EB0608101BFC
:10064000D64608F2FD3873EB050002D308F1010825
:1006500001E092185B41B8F1000F03DA0020014677
:10066000BDE8F08D00204FF48011064684460EE070
:10067000171B73EB050705D3121B63EB050306433A
:100680004CEA010C49084FEA300092185B4150EAED
:100690000107EDD152EA030012D082EA040083EA96
:1006A0000501084305D0101BAB4106D201220023EF
:1006B00006E000224FF0004302E06FF00102531009
:1006C0001AEB06004CEB085110EB0A0041EB0B0152
:1006D000BDE8F04D00F033B9C10F80EAE070084486
:1006E000CA079623002100F0FCB896230022114689
:1006F00000F0F7B820F00040C10DC0F3160040F440
:1007000000007F2901DA00207047962903DCC1F13F
:100710009601C840704796398840704770B5C1F35C
:100720000A5201F000450024C1F3130140F2FF33E7
:1007300041F480119A4201DA002070BD40F2334347
:100740009A42A2F2334203DC524200F09FF800E0EA
:1007500090402C43F1D0404270BD00F0004230F098
:1007600000400AD0C10D01F56071C0F3160042EAE5
:100770000151C208400711437047002001467047ED
:1007800001F0004330B421F0004150EA010206D0EC
:100790000A0DA2F56072C1F31301002A02DC30BC1D
:1007A00000207047440F44EAC104C100E01830BC87
:1007B00000EBC25000F08CB8002801DBC0F1004013
:1007C000002901DBC1F1004181427047002801DBB3
:1007D000C0F10040002901DBC1F1004188427047AF
:1007E00030B50B46014600202022012409E021FA01
:1007F00002F59D4205D303FA02F5491B04FA02F5FE
:100800002844151EA2F10102F1DC30BD2DE9F05F94
:100810000546002092469B4688460646814640246F
:100820001BE0284641464746224600F02FF8534633
:100830005A46C01A914110D311461846224600F07C
:1008400016F82D1A67EB01084F46224601200021B9
:1008500000F00DF817EB00094E41201EA4F1010431
:10086000DFDC484631462A464346BDE8F09F202A51
:1008700004DB203A00FA02F1002070479140C2F1F7
:10088000200320FA03F3194390407047202A04DB29
:10089000203A21FA02F00021704721FA02F3D040F9
:1008A000C2F120029140084319467047202A06DB16
:1008B000CB17203A41FA02F043EAE07306E041FA2E
:1008C00002F3D040C2F1200291400843194670471C
:1008D0000029A8BF7047401C490008BF20F0010054
:1008E000704710B4B0FA80FC00FA0CF050EA010432
:1008F00004BF10BC704749B1CCF1200421FA04F4C4
:1009000011FA0CF118BF012121430843A3EB0C019C
:10091000CB1D4FEA00614FEA102042BF002010BCFF
:10092000704700EBC35010440029A4BF10BC7047AF
:10093000401C490008BF20F0010010BC704710B5F2
:10094000141E73F1000408DA401C41F100019218F2
:100950005B411A4301D120F0010010BD2DE9F04D9B
:1009600092469B4611B1B1FA81F202E0B0FA80F2F0
:1009700020329046FFF77BFF04460F4640EA0A000C
:1009800041EA0B0153465A46084313D0114653EA35
:10099000010019D0C8F140025046FFF777FF054625
:1009A0000E46504659464246FFF761FF084305D0C0
:1009B000012004E020463946BDE8F08D00200543C3
:1009C00046EAE0762C4337430A986305E40AA0EB35
:1009D00008000022FD0A44EA47540A3002D50020EC
:1009E0000146E9E7010510196941DDE908450019EB
:1009F0006941BDE8F04DA2E7C1F30A52C1F313010A
:100A000040F2FF3341F480119A4202DA002001469D
:100A1000704740F233439A42A2F2334202DC524220
:100A2000FFF734BFFFF723BF30B5041E71F1000498
:100A300004DB4FF00044404264EB0101141E73F1EB
:100A4000000405DB1C464FF00043524263EB0403F5
:100A5000994208BF904230BD064C074D06E0E06861
:100A600040F0010394E8070098471034AC42F6D3F5
:100A7000FFF762FBC09F0308E09F030870B58C1866
:100A800010F8015B15F0070301D110F8013B2A11A2
:100A900006D110F8012B03E010F8016B01F8016B8F
:100AA0005B1EF9D12B0705D40023521E0DD401F88B
:100AB000013BFAE710F8013BCB1A921C03E013F854
:100AC000015B01F8015B521EF9D5A142D8D3002089
:100AD00070BD21B1826842F00102826003E0826849
:100AE00022F001028260704710B504461248844229
:100AF00008D10121401501F039FD0021601501F0F8
:100B000035FD17E00D48844208D10121001501F0A0
:100B10002DFD0021201501F029FD0BE0084884423D
:100B200008D10121C80301F021FD00214FF400404C
:100B300001F01CFD10BD0000002401400028014010
:100B4000003C0140014600208A6802F004020AB11C
:100B5000012000E0002070470146C86C80B2704759
:100B60000246002013680B400BB1012000E000207A
:100B70007047014600208A6802F008020AB101208D
:100B800000E000207047000030B50246002000233E
:100B900050680F4C20400D790C6844EA052420432E
:100BA000506090680B4C2040D1E902542C434D79A1
:100BB00044EA450420439060D06A20F470000C7C25
:100BC000641EE4B2234340EA0350D06230BD00000B
:100BD000FFFEF0FFFDF7F1FFF0B504460D460020E3
:100BE0000021092D11DDE068A5F10A0606EB460794
:100BF000072606FA07F18843A5F10A0606EB460622
:100C000003FA06F10843E0600CE0206905EB4507B4
:100C1000072606FA07F1884305EB450603FA06F1B5
:100C200008432061072A0FDA606B561E06EB860721
:100C30001F2606FA07F18843561E06EB860605FABC
:100C400006F10843606322E00D2A0FDA206BD61FFD
:100C500006EB86071F2606FA07F18843D61F06EB28
:100C6000860605FA06F10843206310E0E06AA2F167
:100C70000D0606EB86071F2606FA07F18843A2F148
:100C80000D0606EB860605FA06F10843E062F0BDA4
:100C9000816841F008018160704721B1826842F4A7
:100CA000A002826003E0826822F4A00282607047A2
:100CB000816841F0040181607047000030B107494C
:100CC000096841F40001054A116005E0034909681B
:100CD00021F40001014A116070470000082401401E
:100CE00000BFFEE770B500254FF4803404E080209B
:100CF00001F08CFD00B103E0201EA4F10104F6D147
:100D000000BF0CB9032070BD40F2FF5001F038FD68
:100D10002846F8E770B5044605E01548456B05F030
:100D2000450000B100E0F8E700BF042001F06EFDCF
:100D300020B1042001F024FD032070BD012001F04A
:100D400065FD20B1012001F01BFD0120F5E70848F9
:100D50000069A04201D01020EFE740F2FF500449A3
:100D600088630846406908210840C0B2E5E70000F2
:100D70000080014070B500264FF4803505E0114831
:100D8000446B04F0450000B103E0281EA5F1010505
:100D9000F5D100BF15B104F0040028B103260420EA
:100DA00001F0EEFC304670BD012001F02FFD18B1BE
:100DB0000126012001F0E4FC40F2FF5001F0E0FCCC
:100DC0003046F0E70080014010B505E00B48446B69
:100DD00004F0450000B100E0F8E700BF042001F096
:100DE00015FD20B1042001F0CBFC032010BD40F222
:100DF000FF5001F0C5FC0020F8E700000080014032
:100E00002DE9F04105460E464FF0000805E01F4869
:100E1000476B07F0450000B100E0F8E700BF042091
:100E200001F0F4FC28B1042001F0AAFC0320BDE885
:100E3000F081012001F0EAFC20B1012001F0A0FCCA
:100E40000120F4E711480069A84201D01020EEE724
:100E500040F2FF5001F094FC0C48446904F46040F7
:100E600018B9200C30804046E1E704F4005008B186
:100E70001320DCE704F4804008B11020D7E704F425
:100E8000004008B10F20D2E74046D0E70080014083
:100E900070B500264FF4803505E00F48446B04F030
:100EA000450000B103E0281EA5F10105F5D100BF02
:100EB00015B104F0040028B10326042001F060FC01
:100EC000304670BD04F0400018B10026402001F00B
:100ED00057FC3046F5E700000080014000F08051EB
:100EE00011B10349086001E0024948607047000001
:100EF000040402400000024021B1026842F00102F5
:100F0000026004E002684FF6FE731A400260704708
:100F100001684FF6FE7211400160002101604160DE
:100F20008160C1604B49884208D14A490839496803
:100F300041F00F01474A083A51608AE045491431AF
:100F4000884208D143490839496841F0F001414AD3
:100F5000083A51607DE03F492831884208D13D4937
:100F60000839496841F470613A4A083A516070E0C2
:100F700038493C31884208D136490839496841F43A
:100F80007041344A083A516063E032495031884236
:100F900008D130490839496841F470212D4A083A8E
:100FA000516056E02B496431884208D129490839FB
:100FB000496841F47001274A083A516049E02549DF
:100FC0007831884208D123490839496841F0706175
:100FD000204A083A51603CE01F49884206D1011F6F
:100FE000096841F00F01021F116032E01A49143103
:100FF000884208D11849091F096841F0F001164AD2
:10100000121F116025E014492831884208D1124985
:10101000091F096841F470610F4A121F116018E03E
:101020000D493C31884208D10B49091F096841F438
:101030007041094A121F11600BE007495031884284
:1010400007D10549091F096841F47021024A121F9E
:101050001160704708000240080402400146002069
:10106000002201F0805313B1054B1A6801E0054BD3
:101070001A6802EA01030BB1012000E0002070476A
:10108000000402400000024010B50022026847F64A
:10109000F0739A430C6A8B6823430C6923434C69B1
:1010A00023438C692343CC6923434C6A23438C6AD2
:1010B00023431A430260CB6843600B6883604B682C
:1010C000C36010BD416070477047000010B50A2032
:1010D00005F0CEFD4FF4805000F02CF8012801D12E
:1010E000104908704FF4005000F024F8012802D194
:1010F00002200C4908704FF4804000F01BF80128D2
:1011000002D10320074908704FF4805000F00CF81A
:101110004FF4005000F008F84FF4804000F004F85D
:1011200010BD00001C00002001490860704700004D
:1011300014040140014600200022074B1B6803EA0B
:101140000102054B14331B680B4013B10AB1012097
:1011500000E0002070470000000401400021234906
:101160008279002A3AD00A46126803689A430B46ED
:101170001A600A1D126803689A430B1D1A600279EF
:1011800011440A6803681A430A60184A0832126850
:1011900003689A43154B08331A601A1D12680368D6
:1011A0009A43124B0C331A604279102A0ED11A1F3F
:1011B000126803681A430D4B08331A601A1D12682F
:1011C00003681A43094B0C331A600DE00749427952
:1011D00011440A6803681A430A6005E00279114461
:1011E0000A6803689A430A607047000000040140DF
:1011F0002DE9FC4107460D46002600240020009002
:10120000019008205B4908601020486040208860F9
:101210000020C8604FF480600861084601F02CFB94
:101220001020FFF777FD044614B12046BDE8FC818D
:101230005148008800044F4908603720486040202A
:1012400088600020C8604FF480600861084601F0A3
:1012500013FB3720FFF75EFD04460CB12046E5E79F
:101260004FF0FF3045490860082048603020886012
:101270000220C8600020086101204861084601F092
:101280009BFA00203B49086033204860402088607A
:101290000020C8604FF480600861084601F0ECFA55
:1012A0003320FFF737FD04460CB12046BEE70CE0C3
:1012B0004FF4001001F0AAFA38B101F0D7FA4DF856
:1012C0002600761C022E00D306E02D48406B40F22B
:1012D0002A6108400028EBD000BF082001F096FAF0
:1012E00020B1082001F04CFA04209FE7022001F011
:1012F0008DFA20B1022001F043FA022096E7202067
:1013000001F084FA20B1202001F03AFA06208DE79E
:101310004FF4007001F07AFA28B14FF4007001F038
:101320002FFA072082E740F2FF5001F029FA0098D7
:101330000006009901F47F4140EA0120009901F480
:101340007F0140EA1120009940EA1160686001982D
:101350000006019901F47F4140EA0120019901F45E
:101360007F0140EA1120019940EA1160286020467F
:101370005CE70000E011002024000020F4110020B0
:101380000080014030B500228B071C0F0F2303FAA9
:1013900004F20B4B8C1053F824309343084C8D10FF
:1013A00044F8253023468C1053F824308C07240F42
:1013B00000FA04F42343024C8D1044F8253030BD6C
:1013C000080001402DE9F0410246002500260020DA
:1013D00000230024002791F803C00CF00F0591F8BA
:1013E00003C00CF0100CBCF1000F03D091F802C048
:1013F0004CEA050591F800C0BCF1000F31D014682B
:1014000000202BE04FF0010C0CFA00F3B1F800C003
:101410000CEA03069E4220D183004FF00F0C0CFA19
:1014200003F7BC4305FA03FC4CEA040491F803C03B
:10143000BCF1280F06D14FF0010C0CFA00FCC2F8E9
:1014400014C00AE091F803C0BCF1480F05D14FF079
:10145000010C0CFA00FCC2F810C0401C0828D1D3C3
:101460001460B1F800C0BCF1FF0F34DD54680020F7
:101470002EE000F1080C4FF0010808FA0CF3B1F867
:1014800000C00CEA03069E4221D183004FF00F0CEE
:101490000CFA03F7BC4305FA03FC4CEA040491F888
:1014A00003C0BCF1280F05D100F1080C08FA0CF8B4
:1014B000C2F8148091F803C0BCF1480F07D100F1C5
:1014C000080C4FF0010808FA0CF8C2F81080401C14
:1014D0000828CED35460BDE8F0810000F0B50A467C
:1014E000002300240021002500F00046B6F1004F43
:1014F00002D11D4EF16901E01B4E7168C0F3034536
:1015000083B200F44016B6F5401F08D121F0706197
:10151000154E766826F07066134F7E6012E000F478
:101520008016B6F5801F06D1032606FA05F4A143FE
:1015300041F0706106E0460D360103FA06F6B1434C
:1015400041F0706122B1460D360103FA06F63143CF
:1015500000F00046B6F1004F02D1034EF16101E008
:10156000014E7160F0BD0000000001400246002005
:1015700093680B400BB1012000E0002070474161EF
:1015800070470161704700002DE9F05F82460F4609
:1015900014462046E21704EB5272D2102146E3179C
:1015A00004EB5373DB10A4EBC3030BB1012300E086
:1015B00000231A44624302F0FF099AF800600AF11E
:1015C000010082460578812E05DB402D03DBFF2DCF
:1015D00001D0FF2E0DD14FF0000B06E0002007F8E0
:1015E000010B0BF1010000F0FF0BCB45F6DBBDE872
:1015F000F09F7F2D03DAA5F14000C5B202E0A5F10E
:101600004100C5B2A6F18100C6B2BE2000FB065063
:1016100000FB09F80C2C04D0102C0CD0182C1ED177
:1016200013E01048D0F8090000EB08014A4638469C
:1016300003F0D2FE13E00B48D0F8110000EB0801D4
:101640004A46384603F0C8FE09E00648D0F81900BB
:1016500000EB08014A46384603F0BEFE00BF00BF5B
:1016600000BFC4E7903F00202DE9F05F1421102057
:1016700003F0B6FB83465846FFF737F88046FFF77E
:101680006CF806464FF06632124BFEF744FF0446F4
:101690000D4622462B4610481049FEF736FF80467D
:1016A0000F4A104BFEF7A9FF064600220E4BFEF72D
:1016B0008BFE04460D4600220C4B20462946FEF7C1
:1016C0002AFF0646FFF72AF80FFA80FA5046BDE8CF
:1016D000F09F000066664A3FE17A14AE47E1F63FAC
:1016E00022FDF675E09C713F000039400000594032
:1016F00000BFFEE770B5002400F0CCFF002514E029
:101700006006040E40200E49486100F05FF900F0C9
:101710005DF940200A49086100F058F98021084825
:10172000FFF724FF0443681CC5B2082DE8DB402006
:101730000349486100F04AF900F0BAFF204670BD45
:101740000010014070B5044600251AE04020114900
:10175000486100F03BF9E00918B180200D490861AB
:1017600002E080200B49486100F030F96006040E69
:1017700000F02CF940200749086100F027F9681CA7
:10178000C5B2082DE2DB40200249486100F01EF995
:1017900070BD00000010014010B500F089FF8020EE
:1017A0000749086100F012F940200549086100F07E
:1017B0000DF940200249486100F008F910BD000011
:1017C0000010014010B500F073FF40200C49486143
:1017D00000F0FCF880200A49086100F0F7F840208A
:1017E0000749086100F0F2F880200549486100F0DF
:1017F000EDF840200249486100F0E8F810BD000013
:101800000010014010B500F053FF40200949486125
:1018100000F0DCF880200749486100F0D7F840204C
:101820000449086100F0D2F880200249086100F004
:10183000CDF810BD0010014010B5002400F02AFFC3
:10184000042005F03BFA40200E49086100F0BEF884
:1018500009E0601CC4B200F0B9F8052C03DDFFF705
:10186000D1FF002010BD80210648FFF77FFE002831
:10187000EFD100F01DFF80200249486100F0A6F87A
:101880000120EFE70010014072B6704762B6704762
:101890002DE9F0474FF00009662000F079F8044682
:1018A0002046FEF719FF05464946FEF7C5FC81466E
:1018B000672000F06DF804462002FEF70DFF054694
:1018C0004946FEF7B9FC81460C494846FEF77EFFC3
:1018D00004D249460A48FEF701FD81464846FEF714
:1018E0003CFF0746074A084BFEF715FE0546FEF784
:1018F00047FF81464846BDE8F087000000FEFF46EE
:1019000000FF7F47D8B8BC41CDF3543F2DE9F05FCD
:101910004FF0000B642000F03BF882465046FEF783
:10192000DBFE04465946FEF787FC8346652000F03F
:101930002FF882464FEA0A20FEF7CEFE04465946AB
:10194000FEF77AFC83460D495846FEF735FF02D173
:101950000020BDE8F09F5846FEF7FFFE8046084A8B
:10196000084BFEF7D8FD0646074A084BFEF72CFD4C
:101970000446FEF705FF83465846EAE700FF7F4727
:101980008CA5A3778599313FCDCCCCCCCCCC044071
:1019900070B50446FFF716FFEA20FFF7D3FEFFF706
:1019A0004BFF2046FFF7CEFEFFF746FFFFF70AFF8B
:1019B000EB20FFF7C7FEFFF73FFFFFF79BFE054653
:1019C000FFF7EAFEFFF71EFF284670BD10B50220A4
:1019D00005F074F910BD00001CB50446002001900C
:1019E0000090214800880004204908600D204860CC
:1019F000402088600020C8604FF48060086108467D
:101A000000F03AFF1A48406B009002E01848406B23
:101A10000090009800F045000028F7D0012000F069
:101A2000F5FE20B1012000F0ABFE01201CBD04201A
:101A300000F0ECFE20B1042000F0A2FE0320F5E748
:101A40000B4800690D2801D01020EFE740F2FF504D
:101A500000F096FE0648406901900198C0F34320CB
:101A600020700020E2E7000024000020E0110020A8
:101A7000008001401FB50121402000F067FD0121D9
:101A8000084600F063FD4FF4E040ADF80C0028205C
:101A90008DF80F0003A92748FFF794FC0C210420C0
:101AA000FFF770FC4FF48050019000208DF8080083
:101AB00008208DF8090001208DF80A0001A8FFF721
:101AC0004DFB0D210420FFF75DFC4FF40050019009
:101AD00000208DF8080008208DF8090001208DF8FD
:101AE0000A0001A8FFF73AFB0E210420FFF74AFC89
:101AF0004FF48040019000208DF8080008208DF8F8
:101B0000090001208DF80A0001A8FFF727FB4FF418
:101B1000C06000F0C9FC28208DF8000001208DF87D
:101B200001008DF802008DF80300684600F084FC87
:101B30001FBD000000180140FEB505460F461446C3
:101B4000002628E01C2E0FDA00201021CDE900012C
:101B5000029022784FF6FF733946284600F08CFA3F
:101B600005F1080085B213E01C2E11DB00260025CC
:101B700007F1100087B200201021CDE9000102908A
:101B800022784FF6FF733946284600F075FA08357B
:101B9000641C701CC6B220780028D3D1FEBD2DE98C
:101BA000F04107460C4615461E462A2000F052FB1F
:101BB000384600F03FFB284600F03CFB2B2000F0AD
:101BC00049FB204600F036FB304600F033FB2C206A
:101BD00000F040FBBDE8F0812DE9F84F074688464C
:101BE00014461D46DDF828904FF0010AB9F80000B0
:101BF0000090E01BA5EB080100FB01F6681E83B214
:101C0000601E82B241463846FFF7C9FF012005F049
:101C100055F800212A4802F019FE2948008840F4AE
:101C20000060274908800121254802F00FFE0120AD
:101C300005F044F826E04FF6FE70864202D9361AC7
:101C4000834602E04FF0000AB3461FFA8BF36A4660
:101C50001B490C311B4800F0A7FB01220221184848
:101C600002F000FE174800F0CFFB09E04FF400300F
:101C7000FFF7F4F920B14FF40030FFF72FF900E03F
:101C8000F4E700BFBAF1000FD5D1012005F016F836
:101C90000B480088C0430A4908800846008840F481
:101CA0000060088008460088C0430880012104487D
:101CB00002F0CCFD012005F001F8BDE8F88F00002E
:101CC00000380040580002402DE9FF4F85B08146A2
:101CD0008A460020039083460798A0EB09050898E0
:101CE000A0EB0A06CDF80890CDF804A0002D01DD88
:101CF000012705E00DB9002702E04FF0FF376D42E4
:101D0000002E02DD4FF0010806E016B94FF0000882
:101D100002E04FF0FF387642B54201DD2C4600E08C
:101D20003446002004901EE0019A91B2029A90B2CB
:101D3000129A00F01FF8039828440390B3440398C4
:101D4000A04205DD0398001B0390029838440290DE
:101D5000A34504DDABEB040B0198404401900498CB
:101D6000401C80B20490611C04988842DCDB09B0FE
:101D7000BDE8F08F70B504460D4616462B46224648
:101D800029462046FFF70BFF304600F053FA70BD9E
:101D90002DE9F84305460E4617469846089C3346FB
:101DA0003A46314628460094FFF78EFF43462A46BE
:101DB000314628460094FFF787FF43463A4641469E
:101DC00028460094FFF780FF43463A46314638469E
:101DD0000094FFF779FFBDE8F88300002DE9F84F84
:101DE0000746884614461D46DDF828904FF0010A44
:101DF000CDF80090E01BA5EB080100FB01F6681E82
:101E000083B2601E82B241463846FFF7C8FE012009
:101E100004F054FF00212A4802F018FD28480088E9
:101E200040F40060264908800121254802F00EFD9B
:101E3000012004F043FF26E04FF6FE70864202D9EF
:101E4000361A834602E04FF0000AB3461FFA8BF3BE
:101E50006A461B490C311B4800F0A6FA01220221F8
:101E6000174802F0FFFC174800F0CEFA09E04FF4E3
:101E70000030FFF7F3F820B14FF40030FFF72EF8F1
:101E800000E0F4E700BFBAF1000FD5D1012004F063
:101E900015FF0B480088C0430949088008460088A0
:101EA00040F40060088008460088C0430880012193
:101EB000034802F0CBFC012004F000FFBDE8F88FDE
:101EC000003800405800024010B502F0BDFE4FF44B
:101ED00000716848FFF753FB642004F0C9FE4FF41B
:101EE00000716448FFF74DFB642004F0C1FE4FF41D
:101EF00080616048FFF745FB642004F0B9FE1120C3
:101F000000F0A8F9782004F0B3FE362000F0A2F922
:101F1000702000F098F93A2000F09CF9052000F0BC
:101F200092F9B22000F096F90C2000F08CF90C2008
:101F300000F089F9002000F086F9332000F083F9E1
:101F4000332000F080F9B72000F084F9352000F04C
:101F50007AF9BB2000F07EF9192000F074F9C02056
:101F600000F078F92C2000F06EF9C22000F072F930
:101F7000012000F068F9C32000F06CF9122000F095
:101F800062F9C42000F066F9202000F05CF9C62058
:101F900000F060F90F2000F056F9D02000F05AF957
:101FA000A42000F050F9A12000F04DF9E02000F04D
:101FB00051F9D02000F047F9042000F044F90D2039
:101FC00000F041F9112000F03EF9132000F03BF938
:101FD0002B2000F038F93F2000F035F9542000F0B4
:101FE00032F94C2000F02FF9182000F02CF90D20C8
:101FF00000F029F90B2000F026F91F2000F023F94A
:10200000232000F020F9E12000F024F9D02000F096
:102010001AF9042000F017F90C2000F014F911202F
:1020200000F011F9132000F00EF92C2000F00BF94C
:102030003F2000F008F9442000F005F9512000F09D
:1020400002F92F2000F0FFF81F2000F0FCF81F20FD
:1020500000F0F9F8202000F0F6F8232000F0F3F863
:10206000212000F0F7F8292000F0F4F8642004F0B3
:10207000FFFD10BD001401402DE9FF5F80468A4638
:1020800017469B460F9D00200290CDF80080284601
:1020900005EBD071C1F347042046E21704EB5272FE
:1020A000D2102146E31704EB5373DB10A4EBC303F8
:1020B0000BB1012300E000231A446A4392B201925B
:1020C000A7F12000C7B20AEB0500401E83B208EB5F
:1020D0000400401E82B251464046FFF760FD0026D4
:1020E00069E00C2D07D107EB4700354901EB800073
:1020F000805D03901BE0102D05D1324800EB0710E6
:10210000805D039013E0182D07D107EB47002E499F
:1021100001EB0010805D039009E0202D05D12B48D4
:1021200000EB8710805D039001E0BDE8FF9F4FF05A
:1021300000093AE01098C8B9012000FA09F00399A3
:10214000084018B1584600F075F802E00E9800F00B
:1021500071F80298401CC0B20290029890FBF4F112
:1021600004FB1100E8B90020029021E0012000FAF0
:1021700009F00399084020B15A4651464046FFF7FE
:10218000F9FD08F101001FFA80F80098A8EB0000A3
:10219000A04206D1DDF800800AF101001FFA80FAA2
:1021A00006E009F1010000F0FF09B9F1080FC1DBF9
:1021B00000BF701C86B20198864292DB00BFB4E774
:1021C00042B70008B6BB0008A6C1000876D30008D5
:1021D0002DE9FE4F05460F4614469B46DDE90D9A54
:1021E000DDF83080002620E01C2E0BDA8DE8000799
:1021F00022785B4639462846FFF73EFF05F1080086
:1022000085B20FE01C2E0DDB0026002507F1100023
:1022100087B28DE8000722785B4639462846FFF7EB
:102220002BFF0835641C701CC6B220780028DBD157
:10223000BDE8FE8F10B50446201200F01DF8E0B294
:1022400000F01AF810BD10B50446204600F014F84E
:1022500010BD000010B504464FF480710548FFF72B
:102260008EF9204600F008F84FF480710148FFF71E
:1022700088F910BD0014014010B5044600BF0221CA
:10228000064802F0F8FA0028F9D02146034802F087
:10229000FEFA012004F012FD10BD000000380040DD
:1022A0003EB50A2500240020F0231A46014600907E
:1022B000FFF794FD00201021CDE900014FF6FF73D8
:1022C00017A2702102905C20FFF782FF4FF6FF708B
:1022D00005F18003B422802100903C20FFF758FDD7
:1022E00000BF4FF6FF7005F1800304F13C0200903F
:1022F00010468021FFF7E8FC192004F0B9FC601CAF
:10230000C4B2782CEDDB0020F0231A460146009081
:10231000FFF764FD00220321034802F0ABFB3EBD42
:102320004C4F4144696E67005000002000B585B0F5
:1023300001214FF4017000F009F94FF4004000F062
:10234000D9F81848FEF7D0FB002000908DF8040063
:102350008DF805004FF460200290002003900120CA
:102360008DF8100069460F48FEF70EFC0120FEF7BD
:10237000A5FC01210B48FEF7ACFB0A48FEF788FCE0
:1023800000BF0848FEF7F5FB0028FAD10548FEF724
:102390008FFC00BF0348FEF7D5FB0028FAD105B03B
:1023A00000BD0000002401402DE9F04107460D4624
:1023B00016461C460121084600F0A8F83846FEF7EC
:1023C000A7FD0F4804800F480560466010200D49A6
:1023D00088600846C4600020086148614FF480703E
:1023E00088618000C861002008624FF48050486214
:1023F000002088623846FEF747FEBDE8F081000005
:102400001E0000209801002010B50446002120463F
:10241000FEF772FD044801880448FEF753FE0121CF
:102420002046FEF769FD10BD1E0000205800024046
:1024300000BFFEE77047000070B5002100230F22A7
:10244000C47804B3154C246804F4E064C4F5E06473
:10245000210AC1F10403CA40447804FA03F18478E4
:102460001440214309010E4C0678A155047804F06C
:102470001F050124AC4005786D11AD0005F1E02584
:10248000C5F8004109E0047804F01F050124AC40C0
:10249000044D0678761145F8264070BD0CED00E03D
:1024A00000E400E080E100E002490143024A1160DB
:1024B000704700000000FA050CED00E070470000D6
:1024C00008B50121102000F041F8C020ADF800004F
:1024D00010208DF8030003208DF80200694604489F
:1024E000FEF770FF4020024908618020086108BDA6
:1024F0000010014001460020034A506820F440408B
:1025000008435060704700000010024029B1064A9D
:1025100052690243044B5A6104E0034A5269824300
:10252000014B5A61704700000010024029B1064A71
:10253000D2690243044BDA6104E0034AD269824360
:10254000014BDA61704700000010024029B1064AD1
:1025500092690243044B9A6104E0034A9269824300
:10256000014B9A61704700000010024029B1064AF1
:10257000D2680243044BDA6004E0034AD268824323
:10258000014BDA60704700000010024030B50021B6
:102590000022002400232D4D6D6805F00C0121B1AF
:1025A000042905D0082923D105E0294D056022E042
:1025B000274D05601FE0254D6D6805F47012234D11
:1025C0006D6805F48034022505EB92421CB9214D5B
:1025D000554305600BE01D4D6D6805F400351DB1D8
:1025E0001C4D5543056002E0194D5543056002E05E
:1025F000174D056000BF00BF144D6D6805F0F00178
:102600000909154D6B5C0568DD4045600F4D6D682F
:1026100005F4E061090A104D6B5C4568DD4085609A
:102620000A4D6D6805F46051C90A0B4D6B5C456835
:10263000DD40C560054D6D6805F44041890B074DCF
:102640006B5CC568B5FBF3F5056130BD0010024059
:1026500000127A0000093D005C0100206C0100209E
:1026600008B501210420FFF771FF0E20ADF800002E
:1026700010208DF8030003208DF8020069460448FD
:10268000FEF7A0FE0E2002491031086008BD0000D0
:102690000008014008B58020ADF8000048208DF802
:1026A000030069460148FEF78DFE08BD0010014099
:1026B00008B58020ADF8000010208DF8030003203D
:1026C0008DF8020069460248FEF77CFE08BD000056
:1026D000001001407CB505460024002000900190C8
:1026E00000260DB1022600E000262248406900F0D5
:1026F000007008B10E207CBD1F49098888B2694668
:10270000FEF776FD04460CB12046F4E7019800F48C
:10271000802060B3184800880004184908603720FA
:102720004860402088600020C8604FF480600861E5
:10273000084600F0A1F83720FEF7ECFA04460CB189
:102740002046D8E70D48066006200C494860402026
:1027500088600020C8604FF480600861084600F07F
:102760008BF80620FEF7D6FA04462046C3E725205C
:10277000C1E700000080014024000020E01100209B
:1027800001498863704700000080014001490860EA
:1027900070470000A00030420146034A506820F014
:1027A000FF00084350607047008001400149086005
:1027B000704700008C05304200210A4B02685A62C3
:1027C00042689A621A46D16A21F0F701D0E90223E1
:1027D0001A4303691A4343691A431143014AD162F8
:1027E00070470000008001400020064908604860F2
:1027F0008860C86048628862C862034888630020B5
:10280000C863704700800140FF07C00001460020F8
:10281000034A526B0A400AB1012000E000207047D1
:10282000008001400248006800F00300704700008B
:102830000080014010B500F0CFFF10BD00210A4A12
:10284000516847F6FF629143027D83681A434368EB
:102850001A43C3681A4303681A4303691A431143AE
:10286000014A516070470000008001400148006843
:1028700070470000808001400021094B02689A6087
:102880001A46D1686FF30A01D0E901231A43C368DD
:102890001A4303691A431143014AD160704700008B
:1028A000008001400549096821F00301034A1160D5
:1028B0001146096801431160704700000080014023
:1028C00001490860704700008080014038B5044627
:1028D0004C480078012801D0012C10D10020F023B1
:1028E0001A4601460090FFF779FA474802784748B0
:1028F0000178474802F0BEF8002042490870454878
:102900000078012804D0022822D0032876D137E0AD
:102910000020404908704048006880F002003E49AD
:1029200008600120374908703748007818B900203E
:10293000354908700BE03448007840B132480078DF
:10294000002804DD30480078401E2F49087056E00A
:102950000020304908703048006880F002002E499D
:10296000086001202749087027480078274909781E
:10297000884204DC24480078401C234908703EE06B
:102980000020244908702448006880F00200224991
:1029900008601D48007806282DD2DFE800F02C03DF
:1029A0000B0C162001201D4908701D49087000F00D
:1029B00029FA21E020E00120184908700320184975
:1029C0000870012001F0B6FA16E0012013490870E2
:1029D000042013490870012000F006FC0CE00020E0
:1029E0000E4908700E49087007490870012002F06E
:1029F00055FB01E002E000BF00BF00E000BF00BFE8
:102A000038BD00000A0100200B01002074000020E6
:102A1000780000201C0000200C0801404C00002021
:102A20004D00002070B58CB006460C4615460121BD
:102A30000220FFF76BFD1348FEF76AFA00211148E8
:102A4000FEF75AFA1048019002960395A0080490E8
:102A5000002005908020069080000790800008905C
:102A6000002009904FF400500A9000200B9001A91B
:102A70000448FEF709FB00210248FEF73DFA0CB0BE
:102A800070BD0000440402408080014070B50446DF
:102A9000002516480078032801D1272070BD13486F
:102AA000007838B111480078012803D00F48007829
:102AB000022818D1022C01D32720EFE7E0B2FFF75C
:102AC00009FE05467DB90A48406820F4C05008490F
:102AD000486008464068A1B240EAC1200449486005
:102AE0000846406848602846D8E7000020000020DB
:102AF00000800140F0B5014600200022BD4B1B784C
:102B000081F85630BC4B1B88A1F85430BB4B1B6876
:102B10001A0E93090B70C2F383034B7002F0030388
:102B20008B70B64B1B68C3F30742CA70B34B1B884C
:102B3000C3F307220A71B14B1A784A715B681A0E07
:102B40001301CB80AD4B5B68C3F30742CB8843EAEC
:102B50001213CB8002F00F030B72A84B9B88C3F3B8
:102B60000722D3094B72C2F380138B72C2F3401356
:102B7000CB72C2F300130B7300234B739D4B1B7876
:102B80003BB19C4B1B78012B03D09A4B1B78032B3A
:102B90004FD193071B0D0B61984B1A790B6943EAD0
:102BA00082030B61954B9B681A0E0B6943EA9213E3
:102BB0000B61C2F3C2030B7502F007034B758F4B19
:102BC0009B68C3F3074253098B75C2F38203CB752D
:102BD00093075B0F0B76894B1B89C3F307220B7E90
:102BE00043EAD2130B760B695B1C0024C1E9123453
:102BF0000B7E9B1C012606FA03F3DE17D1E9124572
:102C0000A4FB037C05FB03C304FB0633C1E9127379
:102C10000C7A0123A3400B650024D1E912560B6DF9
:102C2000A5FB037C06FB03C305FB0433C1E9127358
:102C30002CE0704B1B78022B28D1704B1A7993062D
:102C40009B0A0B616D4B9B681A0E0B6943EA0223CA
:102C50000B616A4B9B68C3F307420B6913430B611B
:102C6000664B1B89C3F307220B695B1C4FF400748E
:102C7000A3FB043566000027A3FB064C05FB06C535
:102C800003FB0753C1E9124373100B65C2F38013B2
:102C900001F8193F93065B0E4B70584B1A7A4B782C
:102CA00043EAD2134B7002F07F038B70534BDB6807
:102CB0001A0ED309CB70C2F341130B71C2F3820316
:102CC0004B7193071B0F8B714C4BDB68C3F30742AF
:102CD0008B7943EA92138B71C2F34013CB710023BB
:102CE0000B7202F001034B72444B9B89C3F3072222
:102CF000D3098B72C2F38013CB72C2F340130B73F0
:102D0000C2F300134B73C2F381038B7302F003030E
:102D1000CB733A4B1A7B53080B7401234B74384B1B
:102D20001B681A0ECA741939354B1B68C3F3074266
:102D30001402CC85324B1B88C3F30722CB8D13437F
:102D4000CB852F4B1A7814060C635B681A0E0B6B3D
:102D500043EA02440C632A4B5B68C3F307420B6BE4
:102D600043EA02240C63264B9B88C3F307220B6BB8
:102D700013430B63224B1A7934235A54204B9B681C
:102D80001A0E35235A541E4B9B68C3F30742140690
:102D90008C631B4B1B89C3F307228B6B43EA0244F2
:102DA0008C63174B1A7A8B6B43EA02248C63144BA7
:102DB000DB681A0E8B6B13438B63114BDB68C3F319
:102DC00007423C235B5C43EA12143C235C54130728
:102DD0001C0DCC870A4B9B89C3F30722CB8F13436F
:102DE000CB87074B1A7B540840235C5401244123B2
:102DF0005C54F0BD20000020240000200C120020B4
:102E00001C12002010B594B004464448006880F0BD
:102E100004004249086042480078012801D0012C92
:102E20004AD10020F0231A4601460090FEF7D6FF53
:102E30003CA200210A20FEF77FFE22E03FA21021E3
:102E40000020FEF779FEFA2003F012FF40A21021C5
:102E50000020FEF771FE3148006880F002002F4923
:102E60000860FA2003F004FF3EA220210020FEF7B4
:102E700063FE41480078012803D100203E490870D4
:102E800006E003AA04A93DA004F0A9FA0028D5D1C0
:102E900000BF0398830A0498820A39A105A802F0AA
:102EA00067FC00201021CDE900014FF6FF7305AA51
:102EB00020210290FFF78CF91848006880F0080084
:102EC000164908602C480078012804D002280CD04C
:102ED00003281FD113E00020274908700F4800681D
:102EE00080F004000D49086014E0002022490870B9
:102EF0000A48006880F00400084908600AE00020E1
:102F00001D49087028490870012028490870FFF7FA
:102F1000DDFC00BF00BF14B010BD00000C08014074
:102F20000E0100205072657373204B455933207495
:102F30006F2072657475726E000000005344204368
:102F400061726420464154206572726F7200000005
:102F50002020202020202020202020202020202071
:102F6000200000005072657373204B455931207466
:102F70006F20627265616B001C0000203000000051
:102F8000534420546F74616C2053697A653A256408
:102F90004D422C534420467265652053697A653A48
:102FA00025644D42000000004D0000204C00002030
:102FB0007CB50025002401213020FFF7C7FA01214C
:102FC00040F20240FFF7A2FA4FF4F850ADF80000CB
:102FD00018208DF8030003208DF802006946294867
:102FE000FEF7F0F90420ADF8000018208DF803007A
:102FF00003208DF8020069462348FEF7E3F9FFF746
:10300000F3FB31208DF8040000208DF805008DF8C9
:10301000060001208DF8070001A8FFF70DFA00F067
:10302000EDFA044614B900F035F804461CB9174807
:10303000FFF760FD044634B91449B1F85410080490
:1030400000F054FF04461CB90120FFF71FFD0446A1
:103050001CB10F480078032812D10C4890F8560094
:1030600020B10A4890F85600012801D10A2500E055
:1030700004252846FFF790FB002000F04FFF044690
:1030800020467CBD00100140001401403012002099
:103090002000002038B5002401200090FFF7C2FB7B
:1030A00008B9252038BD4A480078042821D00020DE
:1030B0004849086002204860C02088600020C8603D
:1030C0004FF4806008610846FFF7D6FBFDF752FE1B
:1030D00004460CB12046E5E73F4840693F49086097
:1030E0003D48806948603C48C06988603A48006A49
:1030F000C8603748007858B135480078012807D0B3
:1031000033480078062803D031480078022816D1C9
:10311000002030490860032048604020886000207B
:10312000C8604FF4806008610846FFF7A5FB694658
:103130000320FDF765FE04460CB12046B2E72448A3
:103140000078032816D1BDF800000004214908606A
:1031500003204860402088600020C8604FF48060F1
:1031600008610846FFF788FBFDF704FE04460CB132
:10317000204697E716480078042827D0BDF80000BD
:1031800017490860BDF800000004124908600920D2
:103190004860C02088600020C8604FF480600861EB
:1031A0000846FFF769FBFDF7E5FD04460CB1204634
:1031B00078E7094840690B4908600748806948601A
:1031C0000548C06988600448006AC860002069E753
:1031D00020000020E0110020008001401C1200208F
:1031E000240000200C1200202DE9F04F97B08146FA
:1031F0004FF00008002016901590D3480078012861
:1032000002D0B9F1010F7DD10020F0231A4601460A
:103210000090FEF7E3FDCDA002F09AFA25E0002031
:103220001021CCA2F023CDE9002102901A460146DC
:1032300001F060FCFA2003F01BFD00201021C9A260
:10324000F023CDE9002102901A46014601F052FC1C
:10325000FA2003F00DFD08F1010000F0FF08B8F1BD
:10326000060F02DDFF20169005E0C2A10CA804F0B5
:10327000F3FB0028D3D100BF4FF000081698FF28B9
:1032800040D0BCA007F098FB054625E000201021A7
:10329000BBA20B46CDE900210290F022014601F0CD
:1032A00029FCFA2003F0E4FC00201021B8A20B4610
:1032B000CDE900210290F022014601F01BFCFA202A
:1032C00003F0D6FC08F1010000F0FF08B8F1060F8A
:1032D00002DDFF20159001E0002DD7D000BF15982A
:1032E000FF28CDD040F2FF100B9000200B9907F083
:1032F00045FB0A9000200B9907F040FB0746690048
:10330000002000E007E107F039FB064619E0002045
:103310001021A3A20B46CDE900210290F02201F07A
:10332000E9FBFA2003F0A4FC0020102198A20B4630
:10333000CDE900210290F02201F0DCFBFA2003F03D
:1033400097FC0A980028E2D0002FE0D0002EDED0B3
:1033500088A10CA804F080FB95490870002010217A
:1033600094A20B46CDE900210290F022202101F029
:10337000C1FB8F48007848BB002425E0BDF836B07B
:1033800004A90CA804F084FC894908700846007858
:1033900010B99DF8190000B917E00A98007808B133
:1033A0000A9801E00DF119008246504604F002FD32
:1033B0007F4908700846007800F0F000502803D1DB
:1033C00026F814B0601C84B2D8E700BF002010219A
:1033D0007CA2F023CDE9002102901A46302101F0B1
:1033E00089FB40F2DC5003F043FC07F08FFB002424
:1033F00060A10CA804F030FB6D49087086E036F837
:1034000014100CA803F0A2FE04A90CA804F040FCC0
:10341000674908700846007810B99DF8190058B936
:10342000002010216AA20B46CDE900210290F02273
:10343000014601F05FFB31E00A98007808B10A9874
:1034400001E00DF11900824665A13846FCF7EBFE5C
:1034500051463846FCF7CDFE00201023F0220146ED
:103460000090FEF7BBFC002010210B46F022CDE9B6
:1034700000710290014601F03DFB0020F0231A4646
:1034800010210090FEF7AAFC0120E021F023102279
:10349000CDE900100021384602F05EFE34E05348CA
:1034A000007801280FD1002050490870504800686A
:1034B00080F004004E49086014B1601E84B201E03F
:1034C000681E84B221E04948007802280ED100200D
:1034D000464908704648006880F004004449086086
:1034E000601C84B2AC4200DB00240EE03F48007850
:1034F000032809D100203D4908703D48006880F04C
:1035000004003B49086007E0C9E700BF284800788D
:1035100000283FF474AF00BF00200A9907F01CFA9E
:103520003946002007F018FA3146002007F014FA57
:1035300000203049087001202F490870FFF7C6F9B4
:1035400017B0BDE8F08F000010010020C7E5C6C12C
:103550000D0A000050494354555245CEC4BCFEB438
:10356000EDCEF3002020202020202020202020202D
:1035700020202000303A2F50494354555245000036
:10358000C3BBD3D0CDBCC6ACCEC4BCFE21000000B2
:10359000202020202020202020202020200000008B
:1035A000C4DAB4E6B7D6C5E4CAA7B0DC210000008F
:1035B00011010020D5FDD4DABCECB2E9CDBCC6AC1B
:1035C00000000000BFAACABCCFD4CABE2E2E2E0057
:1035D000B5BDCDB7C1CBA3ACC3BBB5C3C1CB000098
:1035E000303A2F504943545552452F001C000020BB
:1035F0000C0801404D0000204C0000202DE9F04750
:103600000027002400260025A046A146B2206C49D0
:1036100008750020086048608860C8600861084636
:10362000FFF70CF90320FFF73DF90120FFF7AEF893
:1036300000BF12E000206349086048608860C860ED
:103640004FF4806008610846FFF716F9FDF74AFB62
:10365000044604B903E0781CC7B24A2FEADB00BF76
:1036600014B12046BDE8F0874FF4D5705549086085
:1036700008204860402088600020C8604FF48060C7
:1036800008610846FFF7F8F8FDF702FC044624B984
:1036900001204D4908704FF08049002049490860D9
:1036A00037204860402088600020C8604FF4806068
:1036B00008610846FFF7E0F83720FDF72BFB0446CA
:1036C000002C4BD134E000203E4908603720486090
:1036D000402088600020C8604FF480600861084680
:1036E000FFF7CAF83720FDF715FB04460CB120465A
:1036F000B8E7364849EA00003249086029204860A6
:10370000402088600020C8604FF48060086108464F
:10371000FFF7B2F8FDF758FB04460CB12046A1E7CD
:103720002B484669012080EAD67080F001086D1CA4
:10373000B8F1000F03D14FF6FF708542C3D34FF6A7
:10374000FF70854202D31B2420468BE706F08040A1
:10375000061E32D002201C4908702EE01CE01D48D5
:103760001849086001204860402088600020C86037
:103770004FF4806008610846FFF77EF8FDF724FBF0
:1037800004460CB120466DE711484669012080EAE5
:10379000D67080F001086D1CB8F1000F03D14FF610
:1037A000FF708542DBD34FF6FF70854202D31B24A6
:1037B000204657E7032004490870204652E70000DE
:1037C000C8110020E011002020000020000010801F
:1037D000008001400080FF8010B54948406B00F434
:1037E000807070B347480078012814D10020464902
:1037F00008600C204860402088600020C8604FF4BA
:10380000806008610846FFF737F80C20FDF782FA60
:103810003E49087002E000203C4908703848806B3F
:1038200040F48070364988630846C06B4CF23A31E8
:1038300088433349C863012035490870334800780C
:1038400010BDFFE70220FEF7E1FF68B10220FEF79E
:1038500097FF2B48C06B4CF23A3188432849C86324
:1038600002202A490870EBE70820FEF7CFFF68B175
:103870000820FEF785FF2248C06B4CF23A3188439E
:103880001F49C863042021490870D9E72020FEF7AA
:10389000BDFF68B12020FEF773FF1948C06B4CF2E2
:1038A0003A3188431649C863062018490870C7E7AB
:1038B0001020FEF7ABFF68B11020FEF761FF104843
:1038C000C06B4CF23A3188430D49C86305200F495B
:1038D0000870B5E74FF40070FEF798FF70B14FF431
:1038E0000070FEF74DFF0648C06B4CF23A3188433A
:1038F0000349C863072005490870A1E700209FE736
:103900000080014029000020E01100202A00002052
:103910002B0000202DE9F84F8146174698460A9C57
:103920004FF0000AD3464D464FF0FF36B9F1000F75
:1039300002D12620BDE8F88F00208249C862824863
:103940000078022805D10402780A40EAC8574FEAF5
:10395000682800207D4988604860401E086001207A
:1039600048610020C86008610846FEF725FF7548D9
:10397000406900F0007008B10E20DBE7002C21DD6B
:10398000B4F5006F1EDC601E2040D8B9204602F05E
:10399000CDFE00906E48046010206D4948604020C4
:1039A00088600020C8604FF4806008610846FEF718
:1039B00063FF1020FDF7AEF98246BAF1000F03D085
:1039C0005046B7E72620B5E7009800015F498860B8
:1039D000084644604FF0FF30086001204861022033
:1039E000C860002008610846FEF7E6FE58480760F8
:1039F000112057494860402088600020C8604FF47B
:103A0000806008610846FEF737FF1120FDF782F954
:103A10008246BAF1000F01D050468BE74D4800783E
:103A200000285AD1FDF730FF18E04FF40040FEF7B0
:103A3000EDFE78B14FF0000B06E0424880300068A0
:103A400045F82B000BF1010BBBF1080FF5D3203526
:103A5000414E03E00EB904206CE7761E3948406BF6
:103A600040F22A6108400028DFD00820FEF7CEFE91
:103A700020B10820FEF784FE04205BE70220FEF759
:103A8000C5FE20B10220FEF77BFE022052E7202077
:103A9000FEF7BCFE20B12020FEF772FE062049E7AB
:103AA0004FF40070FEF7B2FE28B14FF40070FEF73D
:103AB00067FE07203EE703E0FEF7D8FE28602D1DD5
:103AC0004FF40010FEF7A2FE0028F5D1FDF7DEFE50
:103AD00040F2FF50FEF754FE31E01E480078012806
:103AE0002DD1002221464846FEF79CFF00201B49AD
:103AF00008701B4908701B4908701248C06B40F2DF
:103B00002A3108430F49C8630120FEF74FFE00E049
:103B1000761E1548006800F4005038B91148007846
:103B200020B90E48007808B9002EF1D10EB9042052
:103B300000E70A48007810B1084890F800A0504605
:103B4000F8E600000080014020000020F411002071
:103B5000E011002028000020FFFF7F002A00002045
:103B6000290000202B000020000402402DE9FE4F18
:103B700083460C46914600200290002625462C469E
:103B8000700240EAD5566D020BF00300F0B14FF021
:103B9000000A18E04FF4007000904FEA4A204719DD
:103BA00046EBE0733A461648FFF7B4FE02904FF436
:103BB000007213495846FCF70AFB0BF5007B0AF12B
:103BC000010000F0FF0ACA45E4DB16E0B9F1010F7D
:103BD00009D14FF400702A46334600905846FFF74B
:103BE00099FE029009E04FF400702A463346CDE971
:103BF0000009584600F006F802900298BDE8FE8FD2
:103C0000881200202DE9FF5F17469846DDE90E4631
:103C10004FF00009CA464FF0FF35A94900980860E7
:103C20000020A849C862A8480078022805D10402EB
:103C3000780A40EAC8574FEA68280020A3498860FC
:103C40004860401E0860012048610020C86008618B
:103C50000846FEF7B1FD9B48406900F0007018B1BE
:103C60000E2004B0BDE8F09F002C21DDB4F5006FFC
:103C70001EDC601E2040D8B9204602F057FD834666
:103C800093480460102092494860402088600020DA
:103C9000C8604FF4806008610846FEF7EDFD102013
:103CA000FDF738F88146B9F1000F03D04846D8E750
:103CB0002620D6E7012E70D906FB04F0B0F1007F74
:103CC00001D32620CDE74FEA0B108049886006FB20
:103CD00004F048604FF0FF30086001204861022086
:103CE000C860002008610846FEF766FD7848076056
:103CF000122077494860402088600020C8604FF457
:103D0000806008610846FEF7B7FD1220FDF702F853
:103D10008146B9F1000F01D04846A2E76D4800780E
:103D200000287DD1FDF7B0FD1EE04FF40040FEF706
:103D30006DFDA8B14FF0000A08E0624880300068CD
:103D40005F49096841F82A000AF1010ABAF1080F2F
:103D5000F3D35B4800682030594908605E4D03E0AA
:103D60000DB904207DE76D1E5648406B40F22A31A4
:103D700008400028D9D00820FEF748FD20B10820CF
:103D8000FEF7FEFC04206CE70220FEF73FFD28B1A1
:103D90000220FEF7F5FC022063E78EE02020FEF70C
:103DA00035FD20B12020FEF7EBFC062059E74FF44B
:103DB0000070FEF72BFD28B14FF40070FEF7E0FC19
:103DC00007204EE709E0FEF751FD3D49096808600C
:103DD0003B480068001D3A4908604FF40010FEF7A8
:103DE00015FD0028EFD14FF48070FEF70FFD20B3D2
:103DF0003548007838B134480078012803D032487B
:103E00000078022819D10020314908600C20486050
:103E1000402088600020C8604FF48060086100E0A6
:103E200012E00846FEF728FD0C20FCF773FF8146E0
:103E3000B9F1000F01D0484613E7FDF727FD40F226
:103E4000FF50FEF79DFC38E022480078012834D16D
:103E500006FB04F100220098FEF7E4FD00201F4954
:103E6000087001201E49087000201E49087015487E
:103E7000C06B40F22A3108431249C8630846C06A41
:103E800040F00800C86200E06D1E1748006800F4AA
:103E9000005008B9002DF7D10DB90420E1E600BFAC
:103EA0001048007818B90D4800780028F8D00B4861
:103EB000007810B1094890F800904846D1E600001B
:103EC0002C0000200080014020000020F411002080
:103ED000E011002028000020FFFF7F002A000020C2
:103EE000290000202B0000200004024010B50446E9
:103EF0000948046007200849486040208860002085
:103F0000C8604FF4806008610846FEF7B5FC0720E2
:103F1000FCF700FF10BD0000E0110020014600206A
:103F2000012900D011B9024B197000E0262070471A
:103F300028000020FEB506461024274800780128F6
:103F400001D0012E17D10020F0231A46014600901F
:103F5000FDF744FF00250CE0002020A1CDE900146E
:103F6000029004FB05F12346C82200F0C3FD681C43
:103F7000C5B20A2DF0DB1F48006880F008001D491B
:103F800008601D480078012804D002280CD00328BE
:103F90001FD113E00020184908701648006880F00F
:103FA00004001449086014E0002013490870114807
:103FB000006880F004000F4908600AE000200E4904
:103FC00008700E49087001200D490870FEF77EFC4C
:103FD00000BF00BFFEBD00000F010020CED2CFB257
:103FE000BBB6D5C5BAA3EB857128A852A88CA85139
:103FF000712900000C0801401C0000204D00002029
:104000004C0000202DE9FF5F86B017469846149DAE
:1040100000260020059004900024814603908246EB
:1040200002900195DDF818B0DDF818B0BBF1000F73
:1040300003D126200AB0BDE8F09F0020C449C86221
:10404000C44988604860401E086001204861002023
:10405000C86008610846FEF7AFFBBD48406900F044
:10406000007008B10E20E5E7BB480078022805D1B2
:104070000502780A40EAC8574FEA6828002D1FDD7C
:10408000B5F5006F1CDC681E2840C8B9284602F050
:104090004DFB0590B14805601020B04948604020B4
:1040A00088600020C8604FF4806008610846FEF711
:1040B000E3FB1020FCF72EFE06461EB13046B9E7A2
:1040C0002620B7E7A64800880004A44908600D2010
:1040D0004860402088600020C8604FF4806008611C
:1040E0000846FEF7C9FB0D20FCF714FE06460EB18C
:1040F00030469FE79648406903904FF0FF341BE03D
:10410000641E974800880004944908600D204860A8
:10411000402088600020C8604FF480600861084635
:10412000FEF7AAFB0D20FCF7F5FD06460EB1304662
:1041300080E7874840690390039800F4807008B9CD
:10414000002CDDD10CB9292074E7844807601820C1
:1041500082494860402088600020C8604FF4806039
:1041600008610846FEF788FB1820FCF7D3FD0646D9
:104170000EB130465EE700207A49087005980001CC
:1041800074498860084645604FF0FF3008600120A0
:1041900048610020C86008610846FEF70DFB4FF03B
:1041A000FF347148007800287BD1FDF76DFB43E0B8
:1041B0004FF48040FEF72AFBC8B30198A0EB09003A
:1041C000202821D20198A0EB090000F0030020B9BB
:1041D0000198A0EB0900800804E00198A0EB090019
:1041E0008008401C02904FF0000A09E0DBF8000054
:1041F000FEF766FB0AF1010A0BF1040B09F1040951
:1042000002988245F2D30FE04FF0000A05E05BF818
:104210002A00FEF755FB0AF1010ABAF1080FF6D39E
:104220000BF1200B09F120096FF0404404E0FFE797
:104230000CB90420FEE6641E4548406B40F21A614A
:1042400008400028B4D00820FEF7E0FA20B108208A
:10425000FEF796FA0420EDE60220FEF7D7FA20B129
:104260000220FEF78DFA0220E4E61020FEF7CEFAD7
:1042700020B11020FEF784FA0520DBE64FF4007031
:10428000FEF7C4FA30B14FF40070FEF779FA072058
:10429000D0E606E0FDF7FAFA40F2FF502C498863B9
:1042A0003EE03148007801283AD11022294606988C
:1042B000FEF7B8FB00202D4908702A4908702C49E8
:1042C00008702348C06B40F21A3108432049C86384
:1042D0000846C06A40F00800C86200E0641E254835
:1042E000006800F4005008B9002CF7D11CB9FEF7A3
:1042F0005FFE04209EE64FF0FF3400E0641E1C4881
:10430000007820B91948007808B9002CF6D10CB90A
:1043100004208FE61548007810B11448007889E62B
:1043200040F2FF50FEF72CFA04A8FDF755FB0646B5
:1043300003E004A8FDF750FB06463EB99DF81000C7
:104340000728F6D09DF810000628F2D0304671E616
:1043500000800140F411002020000020E011002026
:104360002400002029000020280000202A0000202E
:104370002B000020000402402DE9FE4F81460C4630
:10438000924600200290002625462C46700240EA04
:10439000D5566D0209F00300F0B14FF0000B18E0A4
:1043A0004FF4007249461948FBF711FF4FF40070B3
:1043B00000904FEA4B20471946EBE0733A4613480A
:1043C000FFF720FE029009F500790BF1010000F0E3
:1043D000FF0BD345E4DB16E0BAF1010F09D14FF42E
:1043E00000702A46334600904846FFF70BFE0290C5
:1043F00009E04FF400702A463346CDE9000A4846EA
:1044000000F006F802900298BDE8FE8F88120020A6
:104410002DE9FF5F84B0DDE91247002600200390FC
:104420000290002580468146019007FB04FBDDF8E1
:1044300010A0DDF810A0BAF1000F03D1262008B0BB
:10444000BDE8F09F0020D849C862D849886048601C
:10445000401E0860012048610020C86008610846CD
:10446000FEF7AAF9D048406900F0007008B10E20AC
:10447000E5E7CF480078022808D10402DDE906010B
:10448000400A40EAC1504912CDE90601002C1FDD67
:10449000B4F5006F1CDC601E2040C8B9204602F055
:1044A00045F90390C34804601020C2494860402089
:1044B00088600020C8604FF4806008610846FEF7FD
:1044C000DBF91020FCF726FC06461EB13046B6E7A5
:1044D0002620B4E7012F6FD907FB04F0B0F1007F6D
:1044E00001D32620ABE7B248007838B1B048007855
:1044F000012803D0AE48007802282DD1AE480088AC
:104500000004AC49086037204860402088600020E3
:10451000C8604FF4806008610846FEF7ADF93720A7
:10452000FCF7F8FB06460EB1304688E7A148076065
:104530001720A0494860402088600020C8604FF4E0
:10454000806008610846FEF797F91720FCF7E2FB48
:1045500006460EB1304672E7964906980860192063
:104560004860402088600020C8604FF48060086187
:104570000846FEF781F91920FCF7CCFB06460EB180
:1045800030465CE7039800018849886007FB04F027
:1045900048604FF0FF300860012048610020C8608B
:1045A00008610846FEF708F984480078002871D1B0
:1045B000451EFDF769F940E0DEE07B48406B00F402
:1045C0008040A8B3ABEB080020281ED2ABEB08005C
:1045D00000F0030018B9ABEB0800800803E0ABEB78
:1045E00008008008401C01904FF0000909E0DAF84B
:1045F0000000FEF765F909F101090AF1040A08F162
:10460000040801988145F2D30FE04FF0000905E05E
:104610005AF82900FEF754F909F10109B9F1080F18
:10462000F6D30AF1200A08F120086FF0404504E0B3
:10463000FFE70DB9042002E76D1E5B48406B40F2B6
:104640001A3108400028B8D00820FEF7DFF820B162
:104650000820FEF795F80420F1E60220FEF7D6F8D0
:1046600020B10220FEF78CF80220E8E61020FEF7C9
:10467000CDF820B11020FEF783F80520DFE64FF4D7
:104680000070FEF7C3F830B14FF40070FEF778F811
:104690000720D4E62CE04FF48070FEF7B7F800B3A3
:1046A0004348007838B142480078012803D0404898
:1046B0000078022815D100203E4908600C2048608F
:1046C000402088600020C8604FF480600861084680
:1046D000FEF7D2F80C20FCF71DFB06460EB1304663
:1046E000ADE6FDF7D3F840F2FF50FEF749F843E09E
:1046F0003248007801283FD107FB04F110220498CA
:10470000FEF790F900202E49087001202D4908700D
:1047100000202D4908702448C06B40F21A3108432C
:104720002149C8630846C06A40F00800C8624FF0DB
:10473000FF3500E06D1E2548006800F4005008B900
:10474000002DF7D11DB9FEF733FC042077E64FF0BA
:10475000FF3500E06D1E1C48007820B9184800782D
:1047600008B9002DF6D10DB9042068E61448007888
:1047700010B11348007862E640F2FF50FEF700F8EF
:1047800002A8FDF729F9064603E002A8FDF724F97F
:1047900006463EB99DF808000728F6D09DF80800A7
:1047A0000628F2D030464AE600800140F41100208D
:1047B00020000020E011002024000020280000201C
:1047C0002A000020290000202B00002000040240C5
:1047D00070B50546002405E0601CC4B2C82C01DD9C
:1047E000002070BD02210E4800F045F80028F3D0EB
:1047F00029460B4800F04BF8002405E0601CC4B2C9
:10480000C82C01DD0020ECE70121054800F033F859
:104810000028F3D0024800F037F8C0B2E1E700000A
:104820000030014010B50446074800884FF6C771B4
:104830000840054908800846008820430880012177
:10484000014800F003F810BD0030014021B102889A
:1048500042F04002028004E002884FF6BF731A4023
:10486000028070471AB183880B43838002E08388FB
:104870008B43838070470246002013890B400BB1A5
:10488000012000E00020704701468889704781813F
:10489000704710B50022028802F441520B884C8800
:1048A00023438C882343CC8823430C8923434C899E
:1048B00023438C892343CC8923431A430280838B6F
:1048C0004FF2FF74234083830B8A038210BD70472D
:1048D00010B500F001F810BD0CB50020019000905B
:1048E0003348006840F480303149086000BF3048E8
:1048F000006800F4003000900198401C019000987E
:1049000018B90198B0F5A06FF1D12948006800F4FA
:10491000003010B10120009001E0002000900098CC
:10492000012843D12348006840F010002149086065
:104930000846006820F0030008600846006840F060
:10494000020008601A4840681949486008464068F3
:1049500048600846406840F4806048600846406807
:1049600020F47C1048600846406840F4E810486035
:104970000846006840F08070086000BF0C4800687E
:1049800000F000700028F9D00948406820F00300CA
:10499000074948600846406840F00200486000BF90
:1049A0000348406800F00C000828F9D10CBD000055
:1049B00000100240002002402DE9FF4F93B007464F
:1049C0000D461C46AA462046E21704EB5272D2104E
:1049D0002146E31704EB5373DB10A4EBC3030BB1C5
:1049E000012300E000231A44624302F0FF0B0C2C69
:1049F00006D0102C04D0182C02D017B0BDE8F08FD0
:104A0000224601A91598FCF7BFFD00262EE001A85B
:104A100010F806804FF0000922E008F0800030B165
:104A20004FF6FF7229463846FDF7A4F906E02098B4
:104A300020B9002229463846FDF79CF94FEA486024
:104A40004FEA1068681C85B2A5EB0A00A04203D1AA
:104A50005546781C87B206E009F1010000F0FF0915
:104A6000B9F1080FD9DB00BF701CC6B25E45CEDBC2
:104A700000BFC2E72DE9F04105460F461646002467
:104A800014E0601CB04208D13EB104EB440105EBD8
:104A90008100012100F00EF806E004EB440105EB73
:104AA0008100002100F006F8601CC4B2BC42E8DBC3
:104AB000BDE8F081FEB504460D4665B9002110221F
:104AC0006089CDE9012100902389A178607862682E
:104AD000FDF77EFB0DE0012D0BD100211022208976
:104AE000CDE9012100906389A17860786268FDF7C3
:104AF0006FFBFEBD2DE9F04F85B007460E4691468F
:104B00009A46DDE90F4B0E9DB846049600200390AF
:104B10004EE0039880BB2878802802DD01200390B6
:104B200046E004EBD47108EB0902A2EB6101B94243
:104B300002DA301986B2474604985044001BB0424E
:104B400000DA38E028780D2804D1301986B24746BB
:104B50006D1C09E000208DE811082A784FF6FF73DC
:104B600031463846FDF788FA6D1C204604EBD071BB
:104B700007EB61018FB21BE0FFE70020039008EB19
:104B80000900001BB84202DA301986B24746049881
:104B90005044001BB04200DA0DE023462A4631465D
:104BA0003846CDF800B0FFF707FFAD1C381987B2C3
:104BB00028780028ADD100BF05B0BDE8F08F0428EB
:104BC00008D14FF0E021096941F004014FF0E022E3
:104BD000116107E04FF0E021096921F004014FF075
:104BE000E02211617047704710B51348006840F02B
:104BF00001001149086008464068104908400E4904
:104C00004860084600680E4908400B49086008469D
:104C1000006820F4802008600846406820F4FE0008
:104C200048604FF41F008860FFF752FE4FF00060AD
:104C30000449086010BD0000001002400000FFF8A9
:104C4000FFFFF6FE08ED00E000B587B00121082067
:104C5000FDF77CFC01212020FDF778FC0121880371
:104C6000FDF764FC4FF42040ADF8180018208DF8D3
:104C70001B0003208DF81A0006A92248FCF7A2FBAE
:104C80004FF420411F48FCF77CFC4FF44040ADF846
:104C900004004FF48270ADF806000020ADF8080063
:104CA0000220ADF80A000120ADF80C004002ADF87A
:104CB0000E000020ADF81000ADF812000720ADF88E
:104CC000140001A91048FFF7E4FD01210E48FFF789
:104CD000BDFD012001F0CCFF4FF4E060ADF81800FD
:104CE00010208DF81B0003208DF81A0006A9074834
:104CF000FCF768FB4FF4E0610448FCF742FC07B0A6
:104D000000BD0000000C01400038004000140140CC
:104D100010B50121084800F036F860B10748008856
:104D200040F40040054908800121034800F01CF8C8
:104D3000002000F005F810BD001400401E01002006
:104D400010B5044644B10021064800F02DF80121B9
:104D5000044800F00CF803E00021024800F007F8D6
:104D600010BD000000140040CA430282704721B108
:104D7000028842F00102028004E002884FF6FE73CE
:104D80001A400280704730B50246002000230024FC
:104D9000158A05EA0103958905EA010413B10CB1EE
:104DA000012000E0002030BD8184704710B504462A
:104DB0000723012221460948FBF70EFF012107487E
:104DC000FBF76BFF00BF02210448FBF7C9FE002878
:104DD000F9D00248FBF7C0FE10BD000000240140DE
:104DE0002DE9F04107460C460025002608E038462C
:104DF000FFF7DCFF0544052001F03AFF701CC6B246
:104E0000A642F4DBB5FBF4F080B2BDE8F08100000F
:104E100010B540F22551134800F07CF808B3114852
:104E200000F034F9C4B210480088B0F5806F12DA8F
:104E300000210E48FFF7B8FF0B48008810B9012089
:104E4000FFF77EFF084801880088401C064A108052
:104E50000748445405E00448008840F400400249F3
:104E6000088010BD004C00401E01002000140040CE
:104E7000903B002010B540F225511D4800F04AF843
:104E800010B31B4800F002F9C4B21A48008800F4BD
:104E90000040C8B91748008800F4804060B10A2C6F
:104EA00003D000201349088020E01248008840F415
:104EB00000401049088019E00D2C06D10D480088EB
:104EC00040F480400B49088010E00A480088C0F395
:104ED0000D0009490C5407480088401C054908800A
:104EE00008460088C72801DD0020088010BD0000AA
:104EF000003801401C010020C836002021B1828901
:104F000042F40052828104E082894DF6FF731A4018
:104F10008281704770B502460024002300250020DE
:104F200040F66A16B14200D100BFC1F3421501F04C
:104F30001F03012606FA03F3012D02D1968933409F
:104F400006E0022D02D1168A334001E0968A3340F2
:104F50000C12012606FA04F41688344013B10CB181
:104F6000012000E0002070BDF0B5034600240026BB
:104F70000025002040F66A17B94200D100BF18464C
:104F8000C1F3421401F01F06012707FA06F5012CB0
:104F900001D10C3004E0022C01D1103000E01430BB
:104FA0001AB107682F43076002E00768AF43076044
:104FB000F0BD00002DE9F04786B005460E460024FE
:104FC000A24600BFA1460027B08900B100BF2F460E
:104FD0002C8A4CF6FF700440F08804432C82AC8984
:104FE0004EF6F3100440B0883189084371890843B4
:104FF0000443AC81AC8A4FF6FF400440B0890443BF
:10500000AC8201A8FDF7C2FA1F48874202D1DDF841
:1050100010A001E0DDF80CA0A88900F4004040B128
:105020000AEBCA0000EB0A1031684900B0FBF1F846
:1050300007E00AEBCA0000EB0A1031688900B0FBF8
:10504000F1F86420B8FBF0F004012009642101FBB1
:105050001089A88900F4004040B1322000EBC9005B
:10506000B0FBF1F000F00700044308E0322000EB51
:1050700009106421B0FBF1F000F00F0004432C8113
:1050800006B0BDE8F087000000380140014688887E
:10509000C0F30800704700BFFEE700002DE9FE43A3
:1050A0000446FCF7E1FA8146FBF716FB06465F492A
:1050B000FBF74CF90546FBF750FB07463A460B4613
:1050C0005BA15D4800F054FB00201021CDE90001F8
:1050D00040F2FF73584A01460290FDF779F8FCF759
:1050E000D7FB8146FBF739FB05460E46FCF70EFC65
:1050F0008146FBF732FB07463A460B464FA14E4826
:10510000CDE9005600F034FB00201021CDE900016C
:1051100040F2FF73484A014602904820FDF758F8D4
:105120004A480078012801D0012C10D10020E0234A
:10513000F02201460090FCF751FE454802784548B0
:1051400001784548FFF796FC002040490870434825
:105150000078012804D0022822D0032861D137E04A
:1051600000203E4908703E48006880F002003C493B
:1051700008600120354908703548007818B90020CA
:10518000334908700BE03248007840B1304800786D
:10519000002804DD2E480078401E2D49087041E0AB
:1051A00000202E4908702E48006880F002002C492B
:1051B00008600120254908702548007825490978AC
:1051C000884204DC22480078401C2149087029E00C
:1051D0000020224908702248006880F0020020491F
:1051E000086001201949087019480078012802D088
:1051F000032814D109E001201A490870002014493D
:1052000008700120FDF762FB09E0032015490870D2
:1052100000200F490870012000F026F800BF00BFF1
:1052200000E000BF00BFBDE8FE8300000000C842F0
:10523000543A252E32664300A0360020563A252ED9
:1052400032665620413A252E34664100080100207E
:10525000090100204E000020500000201C0000200A
:105260000C0801404C00002038B504463D48007849
:10527000012801D0012C0FD10020F0231A4601464D
:105280000090FCF7ABFD3848027807213748FFF75C
:10529000F1FB00203349087035480078012804D01C
:1052A000022822D003285AD135E000203049087066
:1052B0003048006880F002002E490860012029492A
:1052C00008702948007818B90020274908700BE0B9
:1052D0002548007840B124480078002804DD2248A1
:1052E0000078401E204908703AE0002020490870EC
:1052F0002048006880F002001E490860012019491A
:10530000087019480078072804DC17480078401C0A
:105310001549087024E000201549087015480068F8
:1053200080F002001349086001200E4908700E4801
:105330000078012804D0022803D007280DD101E00D
:105340000BE00AE000200C4908700C49087006497F
:1053500008700120FFF7A2FE00BF00BF00E000BF01
:1053600000BF38BD0C0100200D010020B40000205A
:105370001C0000200C0801404C0000204D000020C3
:1053800010B50446214610A000F0E2F9240300F015
:10539000FFF800F097F800200D4908602020FFF783
:1053A00017FAC4F30740FFF713FAC4F30720FFF717
:1053B0000FFAE0B2FFF70CFA01200649C1F89C0190
:1053C00000F080F810BD000066653A25780D0A00EF
:1053D0009C812242008022422DE9F04106460C4683
:1053E000174600200F4908600320FFF7F1F9C4F3C6
:1053F0000740FFF7EDF9C4F30720FFF7E9F9E0B242
:10540000FFF7E6F9002505E0FF20FFF7E1F9705509
:10541000681C85B2BD42F7DB012002490860BDE887
:10542000F08100009C81224210B5002400200E492A
:1054300008609020FFF7CCF90020FFF7C9F90020A1
:10544000FFF7C6F90020FFF7C3F9FF20FFF7C0F907
:1054500044EA0024FF20FFF7BBF90443012003497D
:10546000C1F89C01204610BD9C812242008022424E
:1054700010B500240020074908600520FFF7A8F9AF
:10548000FF20FFF7A5F9044601200349C1F89C015C
:10549000204610BD9C8122420080224210B500208F
:1054A00006490860AB20FFF793F901200449C1F8D1
:1054B0009C01032001F002FC10BD00009C812242EF
:1054C0000080224210B500BFFFF7D2FF00F00100BC
:1054D0000028F9D110BD00002DE9F05F81460F468C
:1054E0001646DFF8A8B04FEA1738C7F30B0ACAF51B
:1054F0008054A64200DC344644E04FEA08314FF4C1
:1055000080525846FFF768FF002508E00AEB0500C7
:105510001BF80000FF2800D003E0681C85B2A542FC
:10552000F4DB00BFA54216DA4046FFF729FF00254D
:1055300007E019F8050005EB0A010BF80100681CEB
:1055400085B2A542F5DB4FEA08314FF48052584648
:1055500000F02EF804E022463946484600F028F8CC
:10556000A64200D10FE008F101084FF0000AA14463
:105570002744301B86B2B6F5805F02DD4FF48054BD
:1055800000E03446B9E700BFBDE8F09FC401002049
:1055900010B50020044908600620FFF719F9012022
:1055A0000249C1F89C0110BD9C8122420080224228
:1055B0002DE9F04107460E461446F0B2C0F580755D
:1055C000AC4200DC254612E02A463146384600F05F
:1055D00013F8AC4200D10BE02F442E44601B84B280
:1055E000B4F5807F02DD4FF4807500E02546EBE7DF
:1055F00000BFBDE8F08100002DE9F04106460C46F1
:105600001746FFF7C5FF00200F4908600220FFF78B
:10561000DFF8C4F30740FFF7DBF8C4F30720FFF718
:10562000D7F8E0B2FFF7D4F8002504E0705DFFF78B
:10563000CFF8681C85B2BD42F8DB01200249086042
:10564000FFF740FFBDE8F0819C81224200B587B0A2
:1056500001212020FCF77AFF8020ADF818001020EF
:105660008DF81B0003208DF81A0006A93248FBF7BD
:10567000A9FE80213048FBF784FF01210820FCF7B8
:1056800065FF01210803FCF761FF01212B48FBF7AF
:1056900025FF2820ADF8180018208DF81B000320E6
:1056A0008DF81A0006A92648FBF78CFE282124480D
:1056B000FBF767FF1020ADF8180048208DF81B009D
:1056C00006A91F48FBF77EFE00BF1E49486840F050
:1056D000E06040F00100486000BF0020ADF8040029
:1056E0004FF48270ADF806000020ADF808000220EB
:1056F000ADF80A000120ADF80C004002ADF80E0034
:105700003820ADF810000020ADF812000720ADF8E9
:10571000140001200C49086001A90C48FFF7B9F8F2
:1057200001210A48FFF792F8FF20FFF751F8002007
:10573000FFF778F807B000BD001401400002300008
:10574000000C0140000001409C81224200300140D9
:105750000FB4054B10B503A9044A029800F0EEF807
:1057600010BC5DF814FB00006184000818010020E3
:105770000FB4084B10B504A902AA039800F0DEF894
:10578000044602A9002000F05CFC204610BC5DF835
:1057900014FB00004360000802E008C8121F08C1A3
:1057A000002AFAD170477047002001E001C1121FA2
:1057B000002AFBD1704700002DE9FF5F82B0002175
:1057C000DDE90430020DDDF840B0034318D044F6A3
:1057D0001050A2F2FF3242431514119801281FD035
:1057E000A5EB0B00401C5FEA000A4FF000064E4F8D
:1057F000DFF83891B046504615D5CAF1000413E0E1
:10580000119801244AA3012801D16FEA0B010298E3
:10581000119AC0E90031C0E9024206B0BDE8F09F2C
:10582000CBF10000DFE704460021404A491842EB73
:105830000450CDE9001012E0E00707D032463B46A5
:1058400040464946FAF767FE8046894632463B465F
:1058500010461946FAF75FFE06460F466410002C04
:10586000EAD1DDE90401DDE90023BAF1000F06DA2F
:10587000FAF751FE42464B46FAF74DFE05E0FAF7BD
:10588000BCFE42464B46FAF7B8FE04460E460022DE
:10589000284BFBF7C9F803D84FF0FF30014607E06B
:1058A0000022254B20463146FAF78EFDFBF7A4F87F
:1058B000102409E0002C0ADB0A220023FAF7A6FFD5
:1058C000039B30321A55641E50EA0102F2D1641C67
:1058D000039AC4F111031444119A012A03D001223E
:1058E00008430DD10AE0084304D000204FF0110B0B
:1058F000119072E7A3EB0B056D1E0DE05B4504DD17
:105900004FF0000205F1010504E003DA4FF0000258
:10591000A5F10105002AECD002981199C0E90231E5
:10592000C0E9004579E70000000014400000F03FA6
:10593000300000000000F0430000E03F2DE9FF4F81
:1059400095B09A46884606460025EEE1252877D18F
:1059500000242746F94A0121039400E0044316F885
:10596000013F203B01FA03F01042F7D130782A289A
:1059700011D06FF02F033078A0F13002092A16D829
:10598000039A44F0020402EB820203EB4202104449
:10599000761C0390EFE758F8042B0392002A03DAF1
:1059A000504244F40054039044F00204761C3078D2
:1059B0002E2816D116F8010F44F004042A280DD021
:1059C0006FF02F023078A0F13003092B09D807EBD4
:1059D000870302EB4303C718761CF3E758F8047BF0
:1059E000761C30786C280FD006DC4C2817D068283D
:1059F0000DD06A2814D104E0742810D07A280FD171
:105A00000DE044F400140AE044F4801401E044F48E
:105A100040147278824202D104F58014761C761C00
:105A2000307866280BD013DC582877D009DC0028A2
:105A300075D04528F6D04628F4D047281AD193E1EE
:105A400018E0632835D0642879D0652812D18BE11D
:105A5000702873D008DC6728F1D069286FD06E28D1
:105A60000DD06F2806D1ACE073282CD0752874D0E7
:105A7000782853D05246179990476D1C54E1C4F3CF
:105A80000250022809D003280DD0D8F800100428AD
:105A90000DD00D6008F1040846E1D8F80010EA17AF
:105AA000C1E90052F6E7D8F800100D80F2E70D705A
:105AB000F0E718F8041B8DF8001000208DF80100A5
:105AC000EB46012003E058F804BB4FF0FF306107BC
:105AD0004FF0000102D40DE009F101018946B942FD
